:0400000020EF1CF0E1
:1008000000269E783EEEE9913E13CECC3EAAAA2A5F
:100810003FD1F717378071313F4F55543A20252E7D
:100820003266256343202000494E3A20252E326649
:0F083000256343202000696E66006E616E000034
:10084000000E0001816F58C082F059C083F05AC079
:1008500084F05BC085F085BF32EF04F030EF04F028
:1008600046EF04F0010E816F82C001F083C002F0F8
:1008700084C003F085C004F0E9EC1BF001C082F0F5
:1008800002C083F003C084F004C085F0000E0001B4
:10089000876F000E866FC7C071F0C8C072F08151BB
:1008A000D8B455EF04F057EF04F06BEF04F081512A
:1008B000D8A45DEF04F05FEF04F065EF04F0000EE4
:1008C000676F2B0E666F69EF04F0000E676F2D0ED9
:1008D000666F66C081F082C001F083C002F084C000
:1008E00003F085C004F0C7EC17F001040210D8A48F
:1008F0007CEF04F07EEF04F0ADEF04F000018151D5
:10090000D8B485EF04F087EF04F090EF04F081C0D5
:1009100000F17107D8A07207000E876F010E866F75
:10092000000E8625016E010E8721026E360E036EC3
:10093000CCEC1BF00001FD0E7127FF0E722357C097
:100940000FF0000E106E010E116E71C012F072C029
:1009500013F077EC1AF013EF09F082C001F083C0B6
:1009600002F084C003F085C004F0C7EC17F001501A
:100970000210D8A4BEEF04F0C0EF04F0DEEF04F0E4
:1009800000018151D8B4C7EF04F0C9EF04F0D2EFF1
:1009900004F081C000F17107D8A07207000E876FC4
:1009A000010E866F000E8625016E010E8721026EF4
:1009B0003A0E036ECCEC1BF09AEF04F0000E00012F
:1009C000886F000E896F800E8A6F3F0E8B6F000E4E
:1009D000706F000E6F6F82C001F083C002F084C0A0
:1009E00003F085C004F0000E056E000E066E000ECA
:1009F000076E000E086E80EC19F0D8B002EF05F01B
:100A000004EF05F0E3EF05F011EF05F073C088F097
:100A100074C089F075C08AF076C08BF000016F4B0E
:100A2000702B88C001F089C002F08AC003F08BC02F
:100A300004F0000E056E000E066E200E076E410ECD
:100A4000086E82EC0EF001C073F002C074F003C0B7
:100A500075F004C076F000017351825D016E74512F
:100A60008359026E75518459036E76518559046E0F
:100A7000AAEC1AF004BE48EF05F00450031002106F
:100A800009E1020E015CD8A048EF05F04AEF05F03D
:100A900006EF05F073C01AF074C01BF075C01CF0AF
:100AA00076C01DF082C01EF083C01FF084C020F00D
:100AB00085C021F045EC17F0D8A061EF05F063EF99
:100AC00005F006EF05F000018851825D016E895145
:100AD0008359026E8A518459036E8B518559046E75
:100AE000AAEC1AF004BE82EF05F0045003100210C5
:100AF00007E1020E015CD8B080EF05F082EF05F04F
:100B0000CAEF05F088C082F089C083F08AC084F003
:100B10008BC085F0E3EF05F088C02AF089C02BF088
:100B20008AC02CF08BC02DF0000E2E6E000E2F6EA2
:100B3000200E306E410E316E97EC10F02AC088F016
:100B40002BC089F02CC08AF02DC08BF000016F07FC
:100B5000D8A070078851825D016E89518359026E59
:100B60008A518459036E8B518559046EAAEC1AF090
:100B700004BEC8EF05F004500310021007E1020E96
:100B8000015CD8B0C6EF05F0C8EF05F0CAEF05F07C
:100B900082EF05F082C01AF083C01BF084C01CF005
:100BA00085C01DF088C01EF089C01FF08AC020F0EB
:100BB0008BC021F045EC17F0D8A0E1EF05F0E3EF92
:100BC00005F08CEF05F05CC069F069C06AF00001C7
:100BD000CABFEDEF05F0EFEF05F0F5EF05F0C9C086
:100BE00062F0CAC063F0F9EF05F0000E636F060E05
:100BF000626F62C06DF063C06EF06D4B6E2B660E5F
:100C00006A19D8A406EF06F008EF06F028EF06F000
:100C100070BF0FEF06F00DEF06F01BEF06F0000EB1
:100C2000886F000E896F800E8A6F3F0E8B6F000EEB
:100C3000706F000E6F6F670E6919D8B422EF06F05F
:100C400024EF06F028EF06F06F516D2770516E23E8
:100C5000000E786F000E776F82C079F083C07AF053
:100C600084C07BF085C07CF088C073F089C074F0CC
:100C70008AC075F08BC076F0B9EF06F079C02AF023
:100C80007AC02BF07BC02CF07CC02DF088C02EF0F9
:100C900089C02FF08AC030F08BC031F097EC10F093
:100CA0002AC043F02BC044F02CC045F02DC046F0C4
:100CB00076EC13F043C07DF044C07EF045C07FF079
:100CC00046C080F07DC001F07EC002F07FC003F01E
:100CD00080C004F0C2EC16F001C06BF002C06CF0F2
:100CE00079C02AF07AC02BF07BC02CF07CC02DF0AC
:100CF0007DC005F07EC006F07FC007F080C008F020
:100D000088C001F089C002F08AC003F08BC004F0F3
:100D100082EC0EF001C02EF002C02FF003C030F0C4
:100D200004C031F028EC1BF02AC079F02BC07AF017
:100D30002CC07BF02DC07CF088C02AF089C02BF03D
:100D40008AC02CF08BC02DF0000E2E6E000E2F6E80
:100D5000200E306E410E316E97EC10F02AC088F0F4
:100D60002BC089F02CC08AF02DC08BF00001774B8E
:100D7000782B6D51775D7851800A5D6E6E51800AD7
:100D80005D58D8A0C6EF06F0C8EF06F03EEF06F0BB
:100D900088C001F089C002F08AC003F08BC004F063
:100DA000000E056E000E066EA00E076E400E086E59
:100DB00082EC0EF001C07DF002C07EF003C07FF037
:100DC00004C080F079C01AF07AC01BF07BC01CF020
:100DD0007CC01DF07DC01EF07EC01FF07FC020F0E3
:100DE00080C021F045EC17F0D8B0F9EF06F0FBEF2A
:100DF00006F006EF07F0000E00017D6F000E7E6F1B
:100E0000000E7F6F000E806F2FEF07F079C001F0AA
:100E10007AC002F07BC003F07CC004F07DC005F016
:100E20007EC006F07FC007F080C008F080EC19F0AB
:100E3000D8A01DEF07F01FEF07F02FEF07F000011C
:100E40006BB125EF07F027EF07F02FEF07F0000E4B
:100E50007D6F000E7E6F000E7F6F000E806F82C070
:100E60001AF083C01BF084C01CF085C01DF07DC04B
:100E70001EF07EC01FF07FC020F080C021F022EC69
:100E80000CF01AC079F01BC07AF01CC07BF01DC0BA
:100E90007CF079C01AF07AC01BF07BC01CF07CC0DB
:100EA0001DF0000E056E000E066E200E076E410E40
:100EB000086E73C001F074C002F075C003F076C014
:100EC00004F082EC0EF001C01EF002C01FF003C05F
:100ED00020F004C021F045EC17F0D8A072EF07F025
:100EE00074EF07F09DEF07F000016F4B702B73C09C
:100EF00001F074C002F075C003F076C004F0000E7B
:100F0000056E000E066E200E076E410E086E82EC16
:100F10000EF001C073F002C074F003C075F004C09D
:100F200076F0660E00016A19D8A499EF07F09BEFDE
:100F300007F09DEF07F06D4B6E2B73C088F074C007
:100F400089F075C08AF076C08BF06FC060F070C019
:100F500061F0000E0001686F000E656F000E646F97
:100F6000000E786F000E776F9BEF08F079C02AF0C3
:100F70007AC02BF07BC02CF07CC02DF088C02EF006
:100F800089C02FF08AC030F08BC031F097EC10F0A0
:100F90002AC043F02BC044F02CC045F02DC046F0D1
:100FA00076EC13F043C07DF044C07EF045C07FF086
:100FB00046C080F07DC001F07EC002F07FC003F02B
:100FC00080C004F0C2EC16F002BEF2EF07F002504F
:100FD00007E10A0E015CD8B0F0EF07F0F2EF07F07E
:100FE00002EF08F07DC001F07EC002F07FC003F088
:100FF00080C004F0C2EC16F001C06BF002C06CF0CF
:1010000007EF08F0000E00016C6F090E6B6F000116
:101010006851D8A40EEF08F010EF08F038EF08F090
:1010200061BF17EF08F015EF08F038EF08F0000E79
:101030008625D96E010E8721DA6E2E0EDF6E864B65
:10104000872B7107D8A07207010E686F38EF08F080
:10105000000E8625D96E010E8721DA6E300EDF6E06
:10106000864B872B7107D8A072076407D8A0650745
:1010700064516511D8A43FEF08F041EF08F028EF64
:1010800008F0000E8625D96E010E8721DA6E6B51AD
:10109000300FDF6E864B872B7107D8A0720779C09F
:1010A0002AF07AC02BF07BC02CF07CC02DF07DC0E4
:1010B00005F07EC006F07FC007F080C008F088C051
:1010C00001F089C002F08AC003F08BC004F082EC0A
:1010D0000EF001C02EF002C02FF003C030F004C0AB
:1010E00031F028EC1BF02AC079F02BC07AF02CC02C
:1010F0007BF02DC07CF088C02AF089C02BF08AC01C
:101100002CF08BC02DF0000E2E6E000E2F6E200ED8
:10111000306E410E316E97EC10F02AC088F02BC073
:1011200089F02CC08AF02DC08BF000016007D8A098
:101130006107774B782B6D51775D7851800A5D6E32
:101140006E51800A5D58D8B0A8EF08F0AAEF08F0F9
:10115000B8EF08F087BFB6EF08F0875109E14B0EF2
:10116000865DD8A0B6EF08F0B8EF08F0B6EF07F04C
:10117000000E786F4F0E776F000E7725D96E010E37
:101180007821DA6EDF6A000E5D6E010E5E6E8651AA
:101190005D5E87515E5A77515D24016E78515E2005
:1011A000026E000E036E010E046E86C005F087C04D
:1011B00006F000EC1BF000018651775D866F8751C9
:1011C0007859876F8151D8A4E8EF08F0EBEF08F069
:1011D000010EECEF08F0000E776F786B8151D8B4F8
:1011E000F4EF08F0F6EF08F001EF09F08607D8A059
:1011F0008707000E8625D96E010E8721DA6E81C021
:10120000DFFF7751715F7851725B57C00FF0000EAE
:101210008625106E010E8721116E71C012F072C00A
:1012200013F077EC1AF01200C3C096F0C4C097F028
:10123000C5C098F0C6C099F043C096F044C097F07E
:1012400045C098F046C099F0000E00017D6F000E79
:101250007C6F995109E1800E985DD8A032EF09F0BA
:1012600034EF09F03BEF09F099AF39EF09F03BEFAC
:1012700009F096EF09F0D8909635476E9735486E8D
:101280009835496E99354A6E4750481049104A10B2
:10129000D8A44DEF09F04FEF09F061EF09F0000E0F
:1012A000966F000E976F800E986FFF0E996F96C025
:1012B00043F097C044F098C045F099C046F021EF44
:1012C0000CF099AF66EF09F068EF09F076EF09F0DE
:1012D000000ECC6F210ECB6FFF0E966FFF0E976F37
:1012E000FF0E986F7F0E996F57EF09F0E70E7C277E
:1012F000FF0E7D2396C001F097C002F098C003F066
:1013000099C004F0000E056E000E066E000E076E0A
:101310004C0E086E82EC0EF001C096F002C097F001
:1013200003C098F004C099F0C3EF09F0800E985DF7
:101330007F0E9959D8A09FEF09F0A1EF09F0ABEF0C
:1013400009F043C043F044C044F045C045F046C0F6
:1013500046F021EF0CF0800E981909E13F0E991923
:1013600096119711D8A4B7EF09F0B9EF09F0C3EFC0
:1013700009F0000E436E000E446E000E456E000E26
:10138000466E21EF0CF00D0E00019627FB0E972301
:101390004A0E9823000E992396C047F097C048F054
:1013A00098C049F099C04AF0180EDCEF09F0D890C7
:1013B0004A32493248324732E82ED7EF09F0810EDF
:1013C00047244B6EFF0E48204C6E4B507C274C50F0
:1013D0007D23FF0E9615476EFF0E9715486E7F0E04
:1013E0009815496E000E99154A6EF30E4724966FB4
:1013F000040E4820976F350E4920986F3F0E4A2003
:10140000996F96C02AF097C02BF098C02CF099C025
:101410002DF0000E2E6E000E2F6E800E306E3F0EE1
:10142000316E28EC1BF02AC096F02BC097F02CC030
:1014300098F02DC099F096C02AF097C02BF098C074
:101440002CF099C02DF0000E1E6E000E1F6E000EC7
:10145000206E400E216E96C01AF097C01BF098C007
:101460001CF099C01DF022EC0CF01AC02EF01BC02D
:101470002FF01CC030F01DC031F097EC10F02AC0E6
:1014800086F02BC087F02CC088F02DC089F086C074
:1014900001F087C002F088C003F089C004F086C064
:1014A00005F087C006F088C007F089C008F082EC1C
:1014B0000EF001C08AF002C08BF003C08CF004C0B3
:1014C0008DF08AC001F08BC002F08CC003F08DC09B
:1014D00004F08AC005F08BC006F08CC007F08DC008
:1014E00008F082EC0EF001C08EF002C08FF003C055
:1014F00090F004C091F0130E1E6ECE0E1F6ECC0E37
:10150000206E3E0E216E260E056E9E0E066E780E25
:10151000076E3E0E086E8EC001F08FC002F090C0C4
:1015200003F091C004F082EC0EF001C01AF002C08A
:101530001BF003C01CF004C01DF022EC0CF01AC01C
:1015400092F01BC093F01CC094F01DC095F092C0A7
:1015500001F093C002F094C003F095C004F08EC077
:1015600005F08FC006F090C007F091C008F082EC43
:101570000EF001C064F002C065F003C066F004C064
:1015800067F0AA0E1E6EAA0E1F6E2A0E206E3F0E68
:10159000216EEE0E056EE90E066E910E076E3E0E82
:1015A000086E8EC001F08FC002F090C003F091C0B1
:1015B00004F082EC0EF001C01AF002C01BF003C070
:1015C0001CF004C01DF022EC0CF01AC092F01BC0FD
:1015D00093F01CC094F01DC095F092C001F093C030
:1015E00002F094C003F095C004F08AC005F08BC0EF
:1015F00006F08CC007F08DC008F082EC0EF001C040
:1016000068F002C069F003C06AF004C06BF068C003
:101610001AF069C01BF06AC01CF06BC01DF064C0FA
:101620001EF065C01FF066C020F067C021F022ECFC
:101630000CF01AC060F01BC061F01CC062F01DC04D
:1016400063F0000E056E000E066E000E076E3F0E74
:10165000086E96C001F097C002F098C003F099C0E0
:1016600004F082EC0EF001C092F002C093F003C0CF
:1016700094F004C095F092C001F093C002F094C0C1
:1016800003F095C004F096C005F097C006F098C02E
:1016900007F099C008F082EC0EF001C07EF002C0A5
:1016A0007FF003C080F004C081F07CC00FF07DC0EB
:1016B00010F0000E10BEFF0E116E126E010E62ECE5
:1016C00015F00FC082F010C083F011C084F012C07A
:1016D00085F086C005F087C006F088C007F089C095
:1016E00008F060C01EF061C01FF062C020F063C04F
:1016F00021F07EC01AF07FC01BF080C01CF081C0BA
:101700001DF022EC0CF01AC001F01BC002F01CC04E
:1017100003F01DC004F082EC0EF001C06CF002C0BA
:101720006DF003C06EF004C06FF0D10E056EF70EC1
:10173000066E170E076E370E086E82C001F083C06A
:1017400002F084C003F085C004F082EC0EF001C00A
:101750001EF002C01FF003C020F004C021F06CC0D6
:101760001AF06DC01BF06EC01CF06FC01DF022ECB3
:101770000CF01AC070F01BC071F01CC072F01DC0DC
:1017800073F07EC02EF07FC02FF080C030F081C09B
:1017900031F070C02AF071C02BF072C02CF073C011
:1017A0002DF028EC1BF02AC074F02BC075F02CC073
:1017B00076F02DC077F096C01EF097C01FF098C04D
:1017C00020F099C021F074C01AF075C01BF076C0EB
:1017D0001CF077C01DF022EC0CF01AC078F01BC092
:1017E00079F01CC07AF01DC07BF078C01AF079C087
:1017F0001BF07AC01CF07BC01DF0800E056E710ED0
:10180000066E310E076E3F0E086E82C001F083C077
:1018100002F084C003F085C004F082EC0EF001C039
:101820001EF002C01FF003C020F004C021F022EC23
:101830000CF01AC043F01BC044F01CC045F01DC0A2
:1018400046F012001D50800B266E1D501D24286E80
:101850001CAE2DEF0CF02FEF0CF030EF0CF02880C9
:101860002850D8B436EF0CF038EF0CF04DEF0CF0F8
:101870002828D8A43EEF0CF040EF0CF048EF0CF015
:10188000000E1A6E000E1B6E000E1C6E000E1D6EFA
:101890001C8E000E1D6E55EF0CF0000E1A6E000E21
:1018A0001B6E000E1C6E000E1D6E2150800B276EED
:1018B00026502718D8B45FEF0CF061EF0CF062EF00
:1018C0000CF0268C21502124276E20AE6AEF0CF0FC
:1018D0006CEF0CF06DEF0CF027802750D8B473EF4D
:1018E0000CF075EF0CF08AEF0CF02728D8A47BEFF2
:1018F0000CF07DEF0CF085EF0CF0000E1E6E000E6C
:101900001F6E000E206E000E216E208E000E216EC6
:1019100092EF0CF0000E1E6E000E1F6E000E206E79
:10192000000E216E2850275CD8B099EF0CF09BEF89
:101930000CF0C2EF0CF026ACA0EF0CF0A2EF0CF014
:10194000A4EF0CF0800E261A28C029F027C028F03A
:1019500029C027F01AC029F01EC01AF029C01EF0B5
:101960001BC029F01FC01BF029C01FF01CC029F0AC
:1019700020C01CF029C020F01DC029F021C01DF09E
:1019800029C021F0000E296E285027C022F0236ABA
:10199000225E000E235A23BED7EF0CF0235009E13C
:1019A0001A0E225CD8A0D7EF0CF0D9EF0CF010EF94
:1019B0000DF01A501B101C101D10D8A4E2EF0CF0F3
:1019C000E5EF0CF0010EE6EF0CF0000E296E000EB4
:1019D0001A6E000E1B6E000E1C6E000E1D6E27C0D0
:1019E00028F019EF0DF029A0F8EF0CF0FAEF0CF049
:1019F00000EF0DF0D89029300109296E02EF0DF0AB
:101A0000D89029321AA007EF0DF009EF0DF00AEF78
:101A10000DF0298E1D341D321C321B321A32282A39
:101A20002750285CD8A017EF0DF019EF0DF0F3EF59
:101A30000CF026BC1EEF0DF020EF0DF060EF0DF066
:101A40002850D8A426EF0DF028EF0DF032EF0DF05E
:101A5000000E1A6E000E1B6E000E1C6E000E1D6E28
:101A600081EF0EF01E501A261F501B2220501C2200
:101A700021501D221DA03FEF0DF041EF0DF0EDEFC5
:101A80000DF029A046EF0DF048EF0DF04EEF0DF0F0
:101A9000D89029300109296E50EF0DF0D8902932E5
:101AA0001AA055EF0DF057EF0DF058EF0DF0298EFD
:101AB0001D341D321C321B321A32282AEDEF0DF074
:101AC0001E501A5C1F501B5820501C581D50800A75
:101AD000226E2150800A2258D8B071EF0DF073EFBA
:101AE0000DF09EEF0DF01A501E5C226E1B501F5819
:101AF000236E1C502058246E1D502158256EFF0E59
:101B000022241A6EFF0E23201B6EFF0E24201C6E53
:101B1000FF0E25201D6E800E261A296C2950D8A490
:101B200094EF0DF096EF0DF0A6EF0DF0010E1A26D2
:101B3000000E1B221C221D22A6EF0DF01E501A5E65
:101B40001F501B5A20501C5A21501D5A1A501B104E
:101B50001C101D10D8A4AFEF0DF0B1EF0DF0E6EFA3
:101B60000DF02950D8A4B7EF0DF0B9EF0DF0E6EF66
:101B70000DF0000E1A6E000E1B6E000E1C6E000E95
:101B80001D6E81EF0EF0D8901A361B361C361D36AE
:101B900029AECDEF0DF0CFEF0DF0D0EF0DF01A80A4
:101BA00029A0D5EF0DF0D7EF0DF0DBEF0DF0D880C9
:101BB0002936DDEF0DF0D89029362850D8B4E3EF60
:101BC0000DF0E5EF0DF0E6EF0DF028061CAEEBEFA3
:101BD0000DF0EDEF0DF0C3EF0DF0000E276E29AE06
:101BE000F4EF0DF0F6EF0DF00EEF0EF029C022F03D
:101BF0007F0E2216D8B4FFEF0DF001EF0EF005EFC7
:101C00000EF0010E276E0EEF0EF01AA00AEF0EF086
:101C10000CEF0EF00EEF0EF001EF0EF02750D8B4DF
:101C200014EF0EF016EF0EF041EF0EF0010E1A2633
:101C3000000E1B221C221D221DA021EF0EF023EFFF
:101C40000EF041EF0EF01AC022F01BC023F01CC0B2
:101C500024F01DC025F025342532243223322232CF
:101C600022C01AF023C01BF024C01CF025C01DF0B8
:101C70002828D8B43EEF0EF040EF0EF041EF0EF002
:101C8000282A2828D8B447EF0EF049EF0EF051EF7C
:101C90000EF02850D8A44FEF0EF051EF0EF063EF86
:101CA0000EF0000E1A6E000E1B6E000E1C6E000E63
:101CB0001D6E2850D8A45FEF0EF061EF0EF063EFB9
:101CC0000EF0000E266E28A068EF0EF06AEF0EF000
:101CD0006DEF0EF01C8E6EEF0EF01C9ED89028302B
:101CE0001D6E26AE76EF0EF078EF0EF079EF0EF067
:101CF0001D8E1AC01AF01BC01BF01CC01CF01DC0AA
:101D00001DF012000450800B0D6E04500424136E5D
:101D100003AE8DEF0EF08FEF0EF090EF0EF013800C
:101D20001350D8B496EF0EF098EF0EF0ABEF0EF024
:101D30001328D8A49EEF0EF0A0EF0EF0A8EF0EF03F
:101D4000000E016E000E026E000E036E000E046E99
:101D5000038EB3EF0EF0000E016E000E026E000E49
:101D6000036E000E046E0850800B0D1A08500824F4
:101D70000E6E07AEBEEF0EF0C0EF0EF0C1EF0EF02C
:101D80000E800E50D8B4C7EF0EF0C9EF0EF0DCEFA6
:101D90000EF00E28D8A4CFEF0EF0D1EF0EF0D9EF51
:101DA0000EF0000E056E000E066E000E076E000EA1
:101DB000086E078EE4EF0EF0000E056E000E066E44
:101DC000000E076E000E086E0E50D8B4EAEF0EF04B
:101DD000ECEF0EF0F4EF0EF01350D8A4F2EF0EF08B
:101DE000F4EF0EF0FEEF0EF0000E016E000E026E2C
:101DF000000E036E000E046E96EF10F00750010205
:101E0000F3CF18F0F4CF19F018500F6E106A116A62
:101E1000126A1950146E156A166A176A0650020281
:101E2000F3CF18F0F4CF19F018500F26000E10223F
:101E30001122122219501426000E152216221722E2
:101E400005500302F3CF18F0F4CF19F018500F2605
:101E5000000E10221122122219501426000E1522F3
:101E60001622172211C012F010C011F00FC010F08E
:101E70000F6A05500202F3CF18F0F4CF19F0185092
:101E80000F2619501022000E1122000E12220650A9
:101E90000102F3CF18F0F4CF19F018500F261950A3
:101EA0001022000E1122000E122211C012F010C0DA
:101EB00011F00FC010F00F6A05500102F3CF18F0B7
:101EC000F4CF19F018500F2619501022000E1122CD
:101ED000000E122207500202F3CF18F0F4CF19F0CF
:101EE0001850142619501522000E1622000E172223
:101EF00006500302F3CF18F0F4CF19F0185014264F
:101F000019501522000E1622000E17220750030248
:101F1000F3CF18F0F4CF19F01850096E19500A6E6B
:101F20000B6A0C6A0BC00CF00AC00BF009C00AF077
:101F3000096A095014260A5015220B5016220C501B
:101F400017220FC009F010C00AF011C00BF012C028
:101F50000CF0190EB1EF0FF0D8900C320B320A32A0
:101F60000932E82EACEF0FF0095014260A50152262
:101F70000B5016220C50172211C012F010C011F095
:101F80000FC010F00F6A0E5013C009F00A6A09263C
:101F9000000E0A22820E0924186EFF0E0A20196E06
:101FA000E7EF0FF0D890143615361636173612AE06
:101FB000DCEF0FF0DEEF0FF0DFEF0FF01480D890C2
:101FC0000F361036113612361806D8A0190616AE7E
:101FD000ECEF0FF0EEEF0FF0D2EF0FF0000E0E6E01
:101FE00012AEF5EF0FF0F7EF0FF01BEF10F0FF0E52
:101FF0000F14096EFF0E10140A6EFF0E11140B6EF3
:102000007F0E12140C6E09500A100B100C10D8B46D
:102010000CEF10F00EEF10F012EF10F0010E0E6E3C
:102020001BEF10F014A017EF10F019EF10F01BEFDA
:1020300010F00EEF10F00E50D8B421EF10F023EF97
:1020400010F047EF10F0010E1426000E1522162294
:10205000172217A02EEF10F030EF10F047EF10F01E
:1020600014C009F015C00AF016C00BF017C00CF030
:102070000C340C320B320A32093209C014F00AC097
:1020800015F00BC016F00CC017F0184A192A19BE2B
:1020900052EF10F0195008E11828D8A052EF10F0B4
:1020A00054EF10F05EEF10F0000E146E000E156E7F
:1020B000800E166E7F0E176E8CEF10F019BE6BEF50
:1020C00010F0195006E11804D8B069EF10F06BEF6A
:1020D00010F077EF10F0000E146E000E156E000E6B
:1020E000166E000E176E000E0D6E8CEF10F018C0FD
:1020F00013F0FF0E1416FF0E15167F0E1616000EA7
:10210000171613A086EF10F088EF10F089EF10F08B
:10211000168ED8901330176E0D50171214C001F0A0
:1021200015C002F016C003F017C004F012002D50C5
:10213000800B3A6E2D502D24416E2CAEA2EF10F084
:10214000A4EF10F0A5EF10F041804150D8B4ABEFF0
:1021500010F0ADEF10F0C2EF10F04128D8A4B3EFAB
:1021600010F0B5EF10F0BDEF10F0000E2A6E000E6B
:102170002B6E000E2C6E000E2D6E2C8E000E2D6E12
:10218000CAEF10F0000E2A6E000E2B6E000E2C6EA1
:10219000000E2D6E3150800B3A1A31503124426EB0
:1021A00030AED5EF10F0D7EF10F0D8EF10F042803E
:1021B0004250D8B4DEEF10F0E0EF10F0F5EF10F081
:1021C0004228D8A4E6EF10F0E8EF10F0F0EF10F09E
:1021D000000E2E6E000E2F6E000E306E000E316E51
:1021E000308E000E316EFDEF10F0000E2E6E000EE0
:1021F0002F6E000E306E000E316E2E502F103010EC
:102200003110D8A406EF11F008EF11F020EF11F013
:10221000000E2A6E000E2B6E000E2C6E000E2D6E20
:10222000800E2C127F0E2D123A502D122AC02AF049
:102230002BC02BF02CC02CF02DC02DF063EF12F032
:102240004150D8A426EF11F028EF11F032EF11F031
:10225000000E2A6E000E2B6E000E2C6E000E2D6EE0
:1022600063EF12F0425041C032F0336A325E000E2A
:10227000335A7F0E32243B6E000E33203C6E2AC050
:1022800036F02BC037F02CC038F02DC039F0000EDE
:102290002A6E000E2B6E000E2C6E000E2D6E000EA0
:1022A0003D6E000E3E6E000E3F6E000E406E000E44
:1022B000426E93EF11F04250D8B461EF11F063EF2A
:1022C00011F07AEF11F0D890363637363836393685
:1022D000D8902A362B362C362D3640AE72EF11F0C0
:1022E00074EF11F075EF11F02A80D8903D363E362C
:1022F0003F3640362E50365C2F50375830503858C5
:1023000031503958D8A087EF11F089EF11F092EFD2
:1023100011F0408C2E50365E2F50375A3050385ABC
:102320003150395A422A190E426499EF11F09BEF4D
:1023300011F05BEF11F03650371038103910D8B467
:10234000A4EF11F0A6EF11F0BEEF11F03D80BEEF4B
:1023500011F0D8902A362B362C362D3640AEB3EFFE
:1023600011F0B5EF11F0B6EF11F02A80D8903D369C
:102370003E363F3640363B06D8A03C062CAEC3EF77
:1023800011F0C5EF11F0A9EF11F0000E426E40AE52
:10239000CCEF11F0CEEF11F0F2EF11F0FF0E3D1483
:1023A000326EFF0E3E14336EFF0E3F14346E7F0EFE
:1023B0004014356E3250331034103510D8B4E3EF7A
:1023C00011F0E5EF11F0E9EF11F0010E426EF2EFBE
:1023D00011F02AA0EEEF11F0F0EF11F0F2EF11F092
:1023E000E5EF11F04250D8B4F8EF11F0FAEF11F028
:1023F0001EEF12F0010E2A26000E2B222C222D2277
:102400002DA005EF12F007EF12F01EEF12F02AC018
:1024100032F02BC033F02CC034F02DC035F0353401
:10242000353234323332323232C02AF033C02BF0FC
:1024300034C02CF035C02DF03B4A3C2A3CBE29EF7D
:1024400012F03C5008E13B28D8A029EF12F02BEF06
:1024500012F036EF12F0000E3C6E3B68000E2A6E52
:10246000000E2B6E000E2C6E000E2D6E3CBE43EF48
:1024700012F03C5006E13B04D8B041EF12F043EFBC
:1024800012F051EF12F0000E3C6E000E3B6E000E8B
:102490002A6E000E2B6E000E2C6E000E2D6E000E9E
:1024A0003A6E3BC041F041A058EF12F05AEF12F0E3
:1024B0005DEF12F02C8E5EEF12F02C9ED890413022
:1024C0002D6E14EF11F0120000018D51D96EDA6AF1
:1024D000DFCFF6FF080EF76E0800F550250AD8A4E6
:1024E00074EF12F076EF12F064EF13F08D51D96EA5
:1024F000DA6ADF2A000EC86F000EC76FC7C0D1F0BE
:10250000C969CA698D51D96EDA6ADFCFF6FF080E44
:10251000F76E0800F5502E0AD8A491EF12F093EF51
:1025200012F0A1EF12F08D51D96EDA6ADF2A8DC058
:1025300007F08EC008F0D5EC19F007C0C9F008C04C
:10254000CAF000018D51D96EDA6ADFCFF6FF080EAE
:10255000F76E0800F550630AD8A4B1EF12F0B3EF9C
:1025600012F0CAEF12F08D51D96EDA6ADF2A8E515D
:10257000D96EDA6ADF50DF2ADF2AD96EDA6ADF50D5
:10258000936F93C001F0026A8CC003F023EC19F042
:1025900075EF13F08D51D96EDA6ADF50946F94C0E5
:1025A000F6FF080EF76E0800F5CF93F0E3EF12F098
:1025B000942BF2EF12F06C0E936FF2EF12F0000E0C
:1025C000936FF2EF12F093514C0AD8B4D8EF12F097
:1025D0002A0AD8B4DBEF12F00A0AD8B4D8EF12F006
:1025E000DFEF12F094C0F6FF080EF76E0800F5500A
:1025F000660AD8A4FEEF12F000EF13F05DEF13F0BF
:102600002AEF13F08E51D96EDA6ADFCF5FF0040E35
:10261000DF265F50D96EDA6ADECF8FF0DECF90F022
:10262000DECF91F0DECF92F035EF13F08E51D96E00
:10263000DA6ADFCF5FF0040EDF265F50D96EDA6A08
:10264000DECF8FF0DECF90F0DECF91F0DECF92F0D4
:1026500035EF13F093514C0AD8B416EF13F0200A5B
:10266000D8B402EF13F035EF13F08D51D96EDA6A5A
:102670009429DF6E51EF13F08CC057F08FC058F0E3
:1026800090C059F091C05AF092C05BF094C0F6FF30
:10269000080EF76E0800F5CF5CF020EC04F075EF43
:1026A00013F094C0F6FF080EF76E0800F550660AA6
:1026B000D8B43CEF13F05DEF13F000018D51D96EEB
:1026C000DA6ADF2A75EF13F08D51D96EDA6ADFCF3F
:1026D000F6FF080EF76E0800F550016E026A8CC016
:1026E00003F023EC19F05DEF13F01200BBC053F0C0
:1026F000BCC054F0BDC055F0BEC056F043C053F04E
:1027000044C054F045C055F046C056F0810E476EA7
:10271000FF0E486E53C049F054C04AF055C04BF00C
:1027200056C04CF0180E9AEF13F0D8904C324B3242
:102730004A324932E82E95EF13F049504724516E42
:10274000000E4820526E52BEAFEF13F0525009E116
:10275000170E515CD8A0AFEF13F0B1EF13F0BBEF41
:1027600013F043C043F044C044F045C045F046C0B8
:1027700046F07EEF14F052BEC0EF13F0C2EF13F03C
:1027800032EF14F051C047F0FF0E486EFF0E496E55
:102790007F0E4A6E000E4B6E4766D1EF13F0D9EFF5
:1027A00013F04B344B324A3249324832472ECCEF89
:1027B00013F048C04DF049C04EF04AC04FF04BC036
:1027C00050F04D505314476E4E505414486E4F50B5
:1027D0005514496E505056144A6E475048104910CF
:1027E0004A10D8A4F6EF13F0F8EF13F0FAEF13F055
:1027F000B1EF13F053C047F054C048F055C049F052
:1028000056C04AF0200E0AEF14F0D8904A324932EE
:1028100048324732E82E05EF14F04750481049106F
:102820004A10D8B416EF14F018EF14F020EF14F09B
:102830004D5053264E5054224F5055225050562240
:102840004D1C476E4E1C486E4F1C496E501C4A6E04
:102850004750531648505416495055164A5056166C
:1028600076EF14F053C047F054C048F055C049F01B
:1028700056C04AF0200E42EF14F0D8904A32493246
:1028800048324732E82E3DEF14F0475048104910C7
:102890004A10D8A44EEF14F050EF14F05AEF14F091
:1028A000000E536E000E546E000E556E000E566EE6
:1028B00076EF14F0D8905334476E5434486E553444
:1028C000496E56344A6E4750481049104A10D8B4E1
:1028D0006CEF14F06EEF14F076EF14F0000E536E00
:1028E000000E546E800E556EBF0E566E53C043F0F0
:1028F00054C044F055C045F056C046F012004DC0DB
:1029000005F04EC006F0000E06BEFF0E076E086E04
:10291000000E016E400E026E9C0E036E000E046EE1
:102920003CEC16F0F00E01240F6ED80E0220106E53
:10293000FF0E0320116EFF0E0420126E010E62ECDA
:1029400015F00FC09AF010C09BF011C09CF012C09F
:102950009DF09AC043F09BC044F09CC045F09DC0E0
:1029600046F014EC09F043C0A6F044C0A7F045C0FF
:10297000A8F046C0A9F0590E056E470E066EBC0EB3
:10298000076E330E086EA6C001F0A7C002F0A8C003
:1029900003F0A9C004F082EC0EF001C09EF002C06A
:1029A0009FF003C0A0F004C0A1F0730E1E6E7F0E56
:1029B0001F6E750E206E390E216EA6C005F0A7C0E1
:1029C00006F0A8C007F0A9C008F09EC001F09FC0A3
:1029D00002F0A0C003F0A1C004F082EC0EF001C030
:1029E0001AF002C01BF003C01CF004C01DF022EC62
:1029F0000CF01AC0A2F01BC0A3F01CC0A4F01DC0B4
:102A0000A5F0000E2A6E000E2B6E800E2C6E3F0E6F
:102A10002D6EEB0E1E6EFF0E1F6E930E206E3A0E85
:102A2000216EA6C005F0A7C006F0A8C007F0A9C097
:102A300008F0A2C001F0A3C002F0A4C003F0A5C03A
:102A400004F082EC0EF001C01AF002C01BF003C0CB
:102A50001CF004C01DF022EC0CF01AC02EF01BC0BC
:102A60002FF01CC030F01DC031F097EC10F02AC0E0
:102A7000A6F02BC0A7F02CC0A8F02DC0A9F0A6C0CE
:102A80001AF0A7C01BF0A8C01CF0A9C01DF0330E9F
:102A90001E6E930E1F6E880E206EC30E216E22ECEA
:102AA0000CF01AC0A6F01BC0A7F01CC0A8F01DC0F7
:102AB000A9F0A6C04DF0A7C04EF0A8C04FF0A9C025
:102AC00050F01200176E1750D8B469EF15F06BEF85
:102AD00015F08DEF15F012BE72EF15F070EF15F0D6
:102AE0008DEF15F00FC013F010C014F011C015F0E9
:102AF00012C016F0131E141E151E161E132A000EE9
:102B000014221522162213C019F014C01AF015C091
:102B10001BF016C01CF095EF15F00FC019F010C097
:102B20001AF011C01BF012C01CF00F501010111041
:102B30001210D8A49EEF15F0A0EF15F0AAEF15F033
:102B4000000E0F6E000E106E000E116E000E126E53
:102B50003BEF16F0960E186EB4EF15F0182AD890C9
:102B60001C321B321A321932000E1914136E000E69
:102B70001A14146E000E1B14156EFE0E1C14166E25
:102B80001350141015101610D8A4C9EF15F0CBEF80
:102B900015F0AEEF15F0D9EF15F0182A010E192631
:102BA000000E1A221B221C22D8901C321B321A3211
:102BB0001932000E1914136E000E1A14146E000E42
:102BC0001B14156EFF0E1C14166E135014101510E6
:102BD0001610D8A4EEEF15F0F0EF15F0CDEF15F0CC
:102BE000F8EF15F01806D89019361A361B361C3631
:102BF0001BBEFDEF15F0FFEF15F007EF16F0020E0C
:102C0000186005EF16F007EF16F0F2EF15F018B0A8
:102C10000CEF16F00EEF16F00FEF16F01B9ED8908B
:102C2000183218C013F0146A156A166A13C016F029
:102C3000156A146A136A1350191214501A12155097
:102C40001B1216501C121750D8B429EF16F02BEF98
:102C500016F033EF16F012BE32EF16F030EF16F02A
:102C600033EF16F01C8E19C00FF01AC010F01BC005
:102C700011F01CC012F01200000E0A6E08BE45EFE3
:102C800016F043EF16F04FEF16F0081E071E061E53
:102C9000056C000E062207220822010E0A6E04BEF1
:102CA00056EF16F054EF16F060EF16F0041E031EF8
:102CB000021E016C000E022203220422010E0A1AD7
:102CC000000E0B6E000E0C6E000E0D6E000E0E6EE2
:102CD0000550061007100810D8B471EF16F073EF06
:102CE00016F0A9EF16F0010E096E7DEF16F0D890E0
:102CF0000536063607360836092A08AE82EF16F082
:102D000084EF16F077EF16F0D8900B360C360D36B0
:102D10000E360550015C0650025807500358085003
:102D20000458D8A096EF16F098EF16F0A1EF16F021
:102D30000550015E0650025A0750035A0850045AC3
:102D40000B80D8900832073206320532092E84EF04
:102D500016F00A50D8B4AFEF16F0B1EF16F0B9EF95
:102D600016F00E1E0D1E0C1E0B6C000E0C220D22FA
:102D70000E220BC001F00CC002F00DC003F00EC01B
:102D800004F01200033404340A6E0A50D8A4CBEFC6
:102D900016F0CDEF16F0D7EF16F0000E016E000E14
:102DA000026E000E036E000E046E44EF17F001C0B9
:102DB00005F002C006F003C007F004C008F0200EC2
:102DC000E7EF16F0D8900832073206320532E82EC7
:102DD000E2EF16F00550096E038EFF0E0116FF0E8E
:102DE0000216FF0E0316000E0416960E0A5E0ABEA9
:102DF000FEEF16F0FCEF16F014EF17F00A50800A01
:102E0000970FD8B006EF17F008EF17F00AEF17F09A
:102E1000CDEF16F0D89004320332023201320A3E6E
:102E20000AEF17F02CEF17F01F0E0A641AEF17F0D5
:102E30001CEF17F024EF17F0CDEF16F0D890013605
:102E40000236033604360A060A50D8A42AEF17F0D1
:102E50002CEF17F01EEF17F00950D8B432EF17F02F
:102E600034EF17F03CEF17F0041E031E021E016C36
:102E7000000E02220322042201C001F002C002F06F
:102E800003C003F004C004F01200000E1A14226EF6
:102E9000000E1B14236E800E1C14246E7F0E1D1456
:102EA000256E2250231024102510D8A45AEF17F0B5
:102EB0005CEF17F064EF17F0000E1A6E000E1B6E39
:102EC000000E1C6E000E1D6E000E1E14226E000EF3
:102ED0001F14236E800E2014246E7F0E2114256E85
:102EE0002250231024102510D8A479EF17F07BEF7F
:102EF00017F083EF17F0000E1E6E000E1F6E000E0F
:102F0000206E000E216E1DAE88EF17F08AEF17F0CD
:102F100093EF17F01A6C1B1ED8B01B2A1C1ED8B0DA
:102F20001C2A800E1D5621AE98EF17F09AEF17F06D
:102F3000A3EF17F01E6C1F1ED8B01F2A201ED8B09A
:102F4000202A800E2156000E1A1A000E1B1A000E9F
:102F50001C1A800E1D1A000E1E1A000E1F1A000EDB
:102F6000201A800E211A1E501A5C1F501B58205028
:102F70001C5821501D58D8B0C0EF17F0C2EF17F001
:102F8000C5EF17F0D890C6EF17F0D8801200BFC079
:102F90000BF0C0C00CF0C1C00DF0C2C00EF001C0FB
:102FA0000BF002C00CF003C00DF004C00EF00BC01B
:102FB00005F00CC006F00DC007F00EC008F0180EAA
:102FC000E7EF17F0D8900832073206320532E82EC4
:102FD000E2EF17F00550096E0A6A09500A10D8A4EA
:102FE000F4EF17F0F6EF17F016EF18F0D8900B3457
:102FF000056E0C34066E0D34076E0E34086E0550E7
:10300000061007100810D8A408EF18F00AEF18F0FF
:1030100010EF18F0000E026E020E016E45EF18F070
:10302000000E026E030E016E45EF18F009280A101B
:10303000D8A41DEF18F01FEF18F041EF18F00BC0E7
:1030400005F00CC006F00DC007F00EC008F0090E28
:10305000D8900536063607360836E82E28EF18F0E1
:103060000550061007100810D8B439EF18F03CEFDF
:1030700018F0010E3DEF18F0000E016E026A45EFE8
:1030800018F0000E026E040E016E1200000E28EC05
:103090001AF001C0CFF002C0D0F0010E28EC1AF0F7
:1030A00001C0CDF002C0CEF0CFC04DF0D0C04EF088
:1030B0007FEC14F04DC0B1F04EC0B2F04FC0B3F091
:1030C00050C0B4F0CDC04DF0CEC04EF07FEC14F047
:1030D0004DC0B5F04EC0B6F04FC0B7F050C0B8F01C
:1030E000D40E0001996F9A6B280E9B6FB1C09CF0B3
:1030F000B2C09DF0B3C09EF0B4C09FF0000EA16FAF
:10310000DF0EA06F6CEC1BF0500E0001996F010EEA
:103110009A6F190E9B6FB5C09CF0B6C09DF0B7C0FA
:103120009EF0B8C09FF0000EA16FDF0EA06F6CEC98
:103130001BF0010E066E010ED5EC1AF0D40E066ED1
:10314000076AACEC1BF0010E066E020ED5EC1AF00D
:10315000500E066E010E076EACEC1BF0030E000164
:10316000B06F8A0EAF6F550EE82EFED7AF2FFCD78B
:10317000B02FFAD700D01200076E07C0D2F0000EB1
:1031800071EC1CF0270E066EF50EE82EFED7062E0B
:10319000FCD70000030E8EEC1CF0070E066E7D0EB1
:1031A000E82EFED7062EFCD70000030E8EEC1CF096
:1031B000070E066E7D0EE82EFED7062EFCD7000009
:1031C000030E8EEC1CF0070E066E7D0EE82EFED769
:1031D000062EFCD70000020E8EEC1CF0070E066EC9
:1031E0007D0EE82EFED7062EFCD70000280E8EECB2
:1031F0001CF0410E066EEE0EE82EFED7062EFCD712
:1032000000D00C0E8EEC1CF0410E066EEE0EE82E79
:10321000FED7062EFCD700D0010E8EEC1CF0410E1E
:10322000066EEE0EE82EFED7062EFCD700D0060E58
:103230008EEC1CF0410E066EEE0EE82EFED7062E2A
:10324000FCD700D012000350D8B429EF19F02BEFAF
:1032500019F033EF19F00350D8A431EF19F033EF20
:1032600019F038EF19F00150CFEC1CF07FEF19F096
:103270000350D96EDA6A0A0ED926DE50DE10D8B4B1
:1032800044EF19F046EF19F05FEF19F00350D96ED3
:10329000DA6A0A0ED9260350E16EE26A030EE126CD
:1032A000DE50E65CE650800A086EDE50800A085860
:1032B000D8B05DEF19F05FEF19F07FEF19F0035010
:1032C000D96EDA6A030ED926DECF04F0DDCF05F021
:1032D0000350D96EDA6ADECF06F0DDCF07F0045076
:1032E0000624D96E05500720DA6E01C0DFFF0350B7
:1032F000D96EDA6A030ED926DE2A000EDD2212000C
:10330000000E0114096E000E02140A6E800E0314E2
:103310000B6E7F0E04140C6E09500A100B100C106B
:10332000D8A495EF19F097EF19F09FEF19F0000E60
:10333000016E000E026E000E036E000E046E000E93
:103340000514096E000E06140A6E800E07140B6E2B
:103350007F0E08140C6E09500A100B100C10D8A424
:10336000B4EF19F0B6EF19F0BEEF19F0000E056ECC
:10337000000E066E000E076E000E086E0550011856
:103380000FE1065002180CE10750031809E108503C
:103390000418D8B4CEEF19F0D0EF19F0D3EF19F02C
:1033A000D890D4EF19F0D8801200000E0B6E000EEA
:1033B0000A6E0750D96EDA6ADFCFF6FF080EF76E95
:1033C0000800F5502A0AD8A4E8EF19F0EAEF19F03E
:1033D00010EF1AF00750D96EDA6ADF2A0850D96E5A
:1033E000DA6A020EDF26DF5CD96EDA6ADECF0AF017
:1033F000DECF0BF023EF1AF00AC001F00BC002F091
:10340000000E046E0A0E036E3AEC1CF00950012403
:103410000A6E000E02200B6E0750D96EDA6ADF2AA0
:103420000750D96EDA6ADFCFF6FF080EF76E080094
:10343000F550D00F096E090E096421EF1AF023EF41
:103440001AF0FCEF19F00AC007F00BC008F01200E8
:10345000096E09C003F0D8900336D89003363C0EAD
:103460000316C250C30B0310C26EC2B23AEF1AF079
:103470003EEF1AF0036A032A3FEF1AF0036A010EC7
:10348000046E032A46EF1AF0D8900436032E44EF58
:103490001AF0C2B04EEF1AF052EF1AF0056A052A80
:1034A00053EF1AF0056A010E066E052A5AEF1AF05C
:1034B000D8900636052E58EF1AF006500410C212A6
:1034C000C2B265EF1AF067EF1AF060EF1AF0C3505E
:1034D000C4CF03F0046A03C004F0036A0310076E4C
:1034E0000450086E07C001F008C002F0120013BEBD
:1034F0007EEF1AF07CEF1AF082EF1AF0000E136ED6
:10350000000E126E000E166E000E156E92EF1AF07F
:10351000000E026E200E016E0FC003F023EC19F0B6
:10352000154A162A1250155C1650800A146E135054
:10353000800A1458D8A09FEF1AF0A1EF1AF088EF74
:103540001AF010C009F011C00AF00FC00BF08CEC9B
:103550001BF0120004BEAFEF1AF0B1EF1AF0BBEF90
:103560001AF001C001F002C002F003C003F004C071
:1035700004F0D4EF1AF001C005F002C006F003C059
:1035800007F004C008F0051E061E071E081E052AC7
:10359000000E06220722082205C001F006C002F034
:1035A00007C003F008C004F01200076EF0EF1AF035
:1035B0000650BF0F8EEC1CF0FFEF1AF00650930F71
:1035C0008EEC1CF0FFEF1AF00650D30F8EEC1CF0BF
:1035D000FFEF1AF006507F0F8EEC1CF0FFEF1AF091
:1035E0000750020AD8B4D8EF1AF0010AD8B4DEEFB7
:1035F0001AF0070AD8B4E4EF1AF0EAEF1AF0120052
:1036000003C00AF004C00BF001C008F002C009F0CA
:103610001AEF1BF00AC0D9FF0BC0DAFFDF50076EAC
:103620000A4A0B2A08C0D9FF09C0DAFF07C0DFFF2A
:10363000084A092A0506D8A00606052806E1062834
:10364000D8A425EF1BF027EF1BF00AEF1BF01200A8
:10365000000E2E1A000E2F1A000E301A800E311A8C
:103660002AC01AF02BC01BF02CC01CF02DC01DF07E
:103670002EC01EF02FC01FF030C020F031C021F04E
:1036800022EC0CF01AC02AF01BC02BF01CC02CF04E
:103690001DC02DF0120096C098F058EF1BF095C099
:1036A0008CF0980E00018D6F97C08EF064EC12F0D4
:1036B00098C0F6FF080EF76E0800F5500009D8A470
:1036C00064EF1BF066EF1BF04FEF1BF0000E0001E4
:1036D000966F000E956F12009C0E0001A26F99C0AC
:1036E000A3F09AC0A4F0000EA76F000EA66F000E04
:1036F000AE6F000EAD6FA30E956F9BC096F0A20E3D
:10370000976F4BEC1BF00001A6519925D96EA7517C
:103710009A21DA6EDF6A1200000E0E6E000E0D6E38
:103720009BEF1BF00CC001F0026A0BC003F023EC0E
:1037300019F00D4A0E2A0D500924D96E0E500A2098
:10374000DA6EDF500C6E0C50D8A4A9EF1BF0ABEF73
:103750001BF092EF1BF01200000E096E000E086EB7
:10376000BDEF1BF008500624D96E09500720DA6E11
:10377000DF5080EC1CF0084A092A08500624D96E54
:1037800009500720DA6EDF50D8A4C9EF1BF0CBEF49
:103790001BF0B2EF1BF0120001C005F002C006F0F2
:1037A000032A0304046E04C0F6FF080EF76E05C07A
:1037B000D9FF06C0DAFF054A062A0800F5CFDFFF69
:1037C000DF50D8A4E6EF1BF0E8EF1BF0D0EF1BF0C2
:1037D00012000150021003100410D8B4F2EF1BF0D5
:1037E000F4EF1BF0FCEF1BF0000E011A000E021AA2
:1037F000000E031A800E041A01C001F002C002F08C
:1038000003C003F004C004F01200020E0001BA6FFE
:10381000860EB96F990EE82EFED7B92FFCD7BA2FB6
:10382000FAD7B5EC1CF0AAEC1CF04E0EBCEC18F06C
:10383000BFEC1CF046EC18F01AEF1CF000EF00F0A3
:10384000A00EF66E390EF76E000EF86E0900F5CF79
:10385000F4F001EE00F0700EEE6AE806FDE100EE15
:10386000BBF0390EEE6AE806FDE1000EF86E0001CD
:1038700005EF1CF001500302F3CF05F0F4CF06F082
:1038800001500402F350062602500302F3500626AC
:1038900005C001F006C002F01200C7B452EF1CF0E0
:1038A00054EF1CF04DEF1CF0C5CF01F01F0E0116B8
:1038B000D8A45DEF1CF05FEF1CF04DEF1CF0120080
:1038C000046E0001D35104120450040971EC1CF081
:1038D0000450FB0B71EC1CF0100EE82EFED700D04C
:1038E0001200036ECBEC1CF00001D2519CEC1CF0DA
:1038F00003500001F4119CEC1CF0C7EC1CF012000A
:10390000056E010E0001D36F0550F00B60EC1CF04A
:103910000538F00BF00B60EC1CF01200056E000E89
:103920000001D36F0550F00B60EC1CF00538F00B74
:10393000F00B60EC1CF01200026E4DEC1CF002C0AB
:10394000C9FF9EA6A6EF1CF0A8EF1CF0A1EF1CF08B
:103950009E961200280EC66E000EC56E000EC76E33
:10396000090EC86E9382938012009268CD0EC16ECC
:10397000920EC06E000EC46E000EC36E1200010ED9
:103980008EEC1CF00D0EE82EFED7000012004DEC60
:103990001CF0C58412004DEC1CF0C5801200120012
:0139A000081E
:020000040030CA
:0E0000000100191EFF8081FF0FC00FE00F40AE
:00000001FF
